:100000000C941F010C9447010C9447010C94470178
:100010000C9447010C9447010C9447010C94470140
:100020000C9447010C9447010C94B6080C94720789
:100030000C9447010C9447010C9447010C94470120
:100040000C9447010C9447010C9447010C94470110
:100050000C9447010C9447010C9447010C94FC014B
:100060000C9447010C9447010C9447010C944701F0
:100070000C9447010C9447010C9447010C944701E0
:100080000C9447010C9447010C9447010C944701D0
:100090000C9447010C9447010C9447010C944701C0
:1000A0000C9447010C9447010C944701FB02FE029B
:1000B000F102F5021F031F031F03020306030A03D5
:1000C000100314031F031A030000000200080E00AF
:1000D00000030401000B000000000000000000000D
:1000E00000000000000000040802011040804010E1
:1000F000204080408008020401804020100201104E
:10010000801020404020040404040403040502027B
:1001100002020403020202020606060606060404A0
:10012000020202040400000000250028002B002E1B
:1001300000310000000000240027002A002D0030BC
:1001400000080B0002020201000904000001020283
:100150000000052400100105240101010424020609
:100160000524060001070581031000400904010071
:10017000020A000000070502024000000705830292
:1001800040000000C18081808112010002EF020165
:10019000406E2A03800001010200011201000200EA
:1001A0000000406E2A03800001010200012003428A
:1001B00000610072006500200043006F006E006463
:1001C0000075006300740069007600650022035426
:1001D000006F00750063006800200042006F00613E
:1001E0000072006400200020002000200020000495
:1001F00003090409040300020103000007240100AD
:100200000122000624020101000924030102010366
:100210000100062402020300092403020401010173
:1002200000070504024000000525010101070585BE
:10023000024000000525010102008704310A112453
:100240001FBECFEFDAE0DEBFCDBF11E0A0E0B1E02E
:10025000E4E1F5E102C005900D92AE34B107D9F7A3
:1002600021E0AEE4B1E001C01D92AA3FB207E1F780
:1002700012E0CEE3D2E004C02297FE010E94700A91
:10028000CA33D107C9F70E9421090C94880A0C943B
:100290000000CF93DF93C7E1D1E08881229661E02F
:1002A0000E94200381E0CB32D807B9F7DF91CF91CC
:1002B000089560E875E289E591E00C9486040E9457
:1002C00049010C9459010F931F93CF93DF938091B1
:1002D0000201909103014497F9F4809100019091FB
:1002E00001010196C9F007E111E0C9E1D0E0809178
:1002F000000190910101C817D90714F461E001C011
:1003000060E0F80180810E94590369960E5F1F4FDB
:10031000C331F1E0DF0759F7DF91CF911F910F91C2
:10032000089580914F0181111AC080914E01811171
:1003300016C08091020190910301019681F0809195
:10034000000190910101019651F08FEF9FEF909382
:1003500003018093020190930101809300010895AD
:1003600089E591E00E948F0318161906F4F589E5D6
:1003700091E00E94B30390930501809304016EE025
:1003800071E089E591E00E94DC04609104017091C4
:1003900005014AE050E089E591E00E949C058091CA
:1003A000040190910501009721F481E080934F01B1
:1003B000089520914F01222339F010924F0190931C
:1003C00003018093020108958130910521F481E0B9
:1003D00080934E01089520914E01222331F0109216
:1003E0004E01909301018093000108950E94B00195
:1003F0000E9463010C9491011F920F920FB60F920D
:1004000011242F933F938F939F93AF93BF9380912A
:10041000510190915201A0915301B091540130913A
:10042000500123E0230F2D3720F40196A11DB11DAB
:1004300005C026E8230F0296A11DB11D209350018F
:100440008093510190935201A0935301B0935401B2
:100450008091550190915601A0915701B09158019A
:100460000196A11DB11D8093550190935601A09353
:100470005701B0935801BF91AF919F918F913F91D8
:100480002F910F900FBE0F901F9018953FB7F894C3
:100490008091550190915601A0915701B09158015A
:1004A00026B5A89B05C02F3F19F00196A11DB11DCF
:1004B0003FBF6627782F892F9A2F620F711D811DEC
:1004C000911D42E0660F771F881F991F4A95D1F74B
:1004D0000895CF92DF92EF92FF92CF93DF936B015B
:1004E0007C010E944602EB01C114D104E104F10435
:1004F00089F00E9432090E9446026C1B7D0B683E07
:10050000734090F381E0C81AD108E108F108C8519E
:10051000DC4FEACFDF91CF91FF90EF90DF90CF904B
:100520000895789484B5826084BD84B5816084BD6B
:1005300085B5826085BD85B5816085BDEEE6F0E05C
:10054000808181608083E1E8F0E0108280818260B8
:100550008083808181608083E0E8F0E08081816039
:100560008083E1E9F0E08081826080838081816026
:100570008083E0E9F0E0808181608083E1ECF0E05D
:1005800080818460808380818260808380818160BB
:100590008083E3ECF0E0808181608083E0ECF0E038
:1005A000808182608083E2ECF0E0808181608083E2
:1005B000EAE7F0E0808184608083808182608083CC
:1005C000808181608083808180688083089590E04D
:1005D000FC013197EE30F10590F5EA5AFF4F0C948B
:1005E0006E0A809180008F7703C0809180008F7D9C
:1005F00080938000089584B58F7702C084B58F7D85
:1006000084BD0895809190008F7707C080919000FD
:100610008F7D03C080919000877F80939000089524
:100620008091C0008F7703C08091C0008F7D809340
:10063000C00008958091C200877F8093C200089512
:10064000CF93DF9390E0FC01E951FF4F2491FC012F
:10065000EA5FFE4F8491882349F190E0880F991F4B
:10066000FC01ED5CFE4FA591B4918B5D9E4FFC01AA
:10067000C591D4919FB7611108C0F8948C912095D1
:1006800082238C93888182230AC0623051F4F894CB
:100690008C91322F309583238C938881822B888391
:1006A00004C0F8948C91822B8C939FBFDF91CF91E3
:1006B00008950F931F93CF93DF931F92CDB7DEB7AB
:1006C000282F30E0F901E853FF4F8491F901E951F7
:1006D000FF4F1491F901EA5FFE4F04910023C9F026
:1006E000882321F069830E94E7026981E02FF0E00E
:1006F000EE0FFF1FEB5DFE4FA591B4919FB7F894ED
:100700008C91611103C01095812301C0812B8C93C2
:100710009FBF0F90DF91CF911F910F91089580910E
:10072000A7019091A8012091A9013091AA01821BF3
:10073000930B8F73992708952091A7013091A801F9
:100740008091A9019091AA012817390749F0E091F9
:10075000A901F091AA01E959FE4F808190E0089526
:100760008FEF9FEF08952091A7013091A80180910C
:10077000A9019091AA0128173907A9F0E091A901D0
:10078000F091AA01E959FE4F80812091A901309191
:10079000AA012F5F3F4F2F7333273093AA01209375
:1007A000A90190E008958FEF9FEF0895CF93DF9315
:1007B000C091A701D091A8012196CF73DD27809128
:1007C000A9019091AA01C817D90799F082E00E9467
:1007D00021068F3F2FEF920761F0E091A701F09182
:1007E000A801E959FE4F8083D093A801C093A701C7
:1007F000DFCFDF91CF91089583E00C948E080F93A3
:100800001F93CF93DF931F92CDB7DEB78C0169831F
:1008100080910D01882359F041E050E0BE016F5FE7
:100820007F4F83E00E946506181619063CF081E0B0
:1008300090E0F8019383828380E090E00F90DF9155
:10084000CF911F910F910895FC0120812E5F20838D
:1008500042E450E061E471E080E80C940007FC01A0
:1008600081819081913A59F4813209F04BC047E07F
:1008700050E066E071E080E00E94000745C09132E0
:1008800009F040C0803239F467E070E086E091E022
:100890000E94440739C0823209F034C082818093BB
:1008A0000D018091060190910701A0910801B0917E
:1008B0000901803B9440A105B10531F580910D01FE
:1008C00080FD12C087E797E79093010880930008A6
:1008D0002BE088E190E00FB6F894A8958093600033
:1008E0000FBE2093600010C088E10FB6F89480938B
:1008F0006000109260000FBEA8951092010810923F
:10090000000802C080E0089581E0089508951092E3
:100910005C0110925B0188EE93E0A0E0B0E0809370
:100920005D0190935E01A0935F01B09360018FE23F
:1009300091E090935A01809359010895CF92DF92EC
:10094000EF92FF920F931F93CF93DF936C017A0185
:10095000EB01E60EF71E00E010E0CE15DF0561F0BA
:100960006991D601ED91FC910190F081E02DC601D5
:100970000995080F191FF1CFC801DF91CF911F9181
:100980000F91FF90EF90DF90CF9008956115710562
:1009900081F0DB010D900020E9F7AD0141505109D4
:1009A000461B570BDC01ED91FC910280F381E02D99
:1009B000099480E090E008950C94C604DC01ED9168
:1009C000FC910190F081E02D09940F931F93CF9338
:1009D000DF93EC016DE00E94DE048C016AE0CE0141
:1009E0000E94DE04800F911FDF91CF911F910F9124
:1009F00008958F929F92AF92BF92CF92DF92EF9223
:100A0000FF920F931F93CF93DF93CDB7DEB7A197DC
:100A10000FB6F894DEBF0FBECDBF7C01C42EE52F0C
:100A2000CB01D22E19A221E02D1510F02AE0D22EF2
:100A30008E010F5D1F4F8D2C912CA12CB12C6C2D94
:100A40007E2FA50194010E944C0A8C2DD29E801904
:100A50001124015011098A3014F4805D01C0895CB1
:100A6000F8018083211531054105510521F0C22E81
:100A7000E32FCA01E4CFB801C7010E94C604A196C2
:100A80000FB6F894DEBF0FBECDBFDF91CF911F919F
:100A90000F91FF90EF90DF90CF90BF90AF909F901D
:100AA0008F900895CF92DF92EF92FF920F931F9352
:100AB000CF93DF93EC016A017B012115310579F4B5
:100AC000E881F9810190F081E02D642FDF91CF91D1
:100AD0001F910F91FF90EF90DF90CF9009942A30F3
:100AE0003105E9F477FF1AC06DE20E94DE048C0143
:100AF00044275527BA014C195D096E097F092AE080
:100B0000CE010E94F904800F911FDF91CF911F91B8
:100B10000F91FF90EF90DF90CF9008952AE0B701FA
:100B2000A601CE01DF91CF911F910F91FF90EF9021
:100B3000DF90CF900C94F9040F931F93CF93DF9322
:100B4000EC019A01AB01662757FD6095762F0E9454
:100B500052058C01CE010E94E504800F911FDF91A8
:100B6000CF911F910F910895615030F02091F100C5
:100B7000FC0120830196F8CF289884E68093B20187
:100B800008952FB7FC012083F89467706093E90003
:100B90000895CF93DF931F92CDB7DEB7682FCE01B4
:100BA00001960E94C1058091F20099819FBF0F902C
:100BB000DF91CF910895FF920F931F93CF93DF930F
:100BC00000D0CDB7DEB7F62E8A019091B1019923FE
:100BD00011F057FF03C08FEF9FEF2BC0682FCE019E
:100BE00001967A830E94C1058091F20090E0A801ED
:100BF0007A81801791070CF4AC01EF2DF72FF40EDA
:100C000084E6FE1639F028988093B2019091F100A5
:100C10009193F7CF4115510521F08091F20088237F
:100C200021F089818FBFCA0104C08BE68093E80060
:100C3000F8CF0F900F90DF91CF911F910F91FF9000
:100C40000895CF93DF931F92CDB7DEB741E050E018
:100C5000BE016F5F7F4F0E94DB05019719F4898108
:100C600090E002C08FEF9FEF0F90DF91CF9108953A
:100C7000CF93DF931F92CDB7DEB7682FCE010196D9
:100C80000E94C1059091E800892F807295FF04C0F1
:100C90009091F20080E4891B99819FBF0F90DF91B2
:100CA000CF910895CF93DF931F92CDB7DEB7682F12
:100CB000CE0101960E94C1058091E80099819FBFF5
:100CC00080720F90DF91CF9108954F925F926F9253
:100CD0007F928F929F92AF92BF92CF92DF92EF92CC
:100CE000FF920F931F93CF93DF931F92CDB7DEB781
:100CF000582E7B01A42E952E8091B101882369F096
:100D0000042F152F8AEFB82E852D8072782E9AE346
:100D1000892E852D8074682E11C08FEF9FEF53C0F0
:100D2000852D0E943806482E81110CC0BA94A9F373
:100D300061E070E080E090E00E9469020115110519
:100D400079F737C0282F30E0021713070CF4402E34
:100D5000C42CD12C0C191D09652DCE0101960E94C1
:100D6000C105772039F04A948FEF4816B1F0109200
:100D7000F100F9CFF701842D57FE07C0815058F0DC
:100D800094919093F1003196F9CF815020F0919198
:100D90009093F100FACFEC0CFD1C8091E80085FFE8
:100DA0000FC00115110511F461100AC089818FBFB0
:100DB000C5CF5D9884E68093B3018A2D992D03C039
:100DC0008092E800F3CF0F90DF91CF911F910F91A8
:100DD000FF90EF90DF90CF90BF90AF909F908F905B
:100DE0007F906F905F904F9008951092E90010925D
:100DF000B0011092AF019093AE018093AD010895C0
:100E0000CF93DF93FB0120E030E0DEEF24173507BE
:100E1000A1F187FF02C0C49101C0C081A091AF01C0
:100E2000B091B0016091AD017091AE01A617B70706
:100E3000B4F49091E8009570E1F39091E80092FD90
:100E40001EC0C093F1006091AF017091B0016F5F5F
:100E50007F4F6F737727672B11F4D093E800609171
:100E6000AF017091B0016F5F7F4F7093B0016093DD
:100E7000AF012F5F3F4F3196C9CFC90102C08FEF3D
:100E80009FEFDF91CF9108951F93CF93DF931F9230
:100E9000CDB7DEB7162F2091E80022FFFCCF612FDF
:100EA00079830E94B4058BEF8093E800812F7981CC
:100EB000972F0F90DF91CF911F910895CF93DF93DC
:100EC0001F92CDB7DEB71982CE0101960E9424048D
:100ED000CE0101960E94240A898190E00F90DF9153
:100EE000CF9108951F920F920FB60F921124DF92A7
:100EF000EF92FF920F931F932F933F934F935F9324
:100F00006F937F938F939F93AF93BF93EF93FF93D1
:100F1000CF93DF93CDB7DEB76197DEBFCDBF109221
:100F2000E9008091E80083FFDBC068E0CE010A960B
:100F30000E94B40582EF8093E8009A8597FF05C070
:100F40008091E80080FFFCCF03C08EEF8093E80023
:100F5000892F807609F0A9C08B85811105C0109278
:100F6000F1001092F100B5C0282F2D7F213009F437
:100F7000B0C0853049F48091E80080FFFCCF8C85BB
:100F800080688093E300A5C0863009F066C0DD84E8
:100F9000E888F98822E0D2122CC080E090E00E941C
:100FA000F5060E945E0799E08E010F5F1F4FF80162
:100FB000292F11922A95E9F79983DA8291E09E838D
:100FC00090E898879AE099872091AF013091B0011D
:100FD000275F3F4F3C832B838D83C7010E94F5061B
:100FE00049E050E0B80180E00E9400070E945E07DF
:100FF00070C0C7010E94F50681E0D8120DC0888933
:101000009989089711F4D092AC018091AC018823A2
:1010100089F069E871E016C0E3E0DE125EC08C85FD
:10102000882359F0823061F0813009F056C06DEAB2
:1010300071E008C06BE971E005C06FEE71E002C0BD
:101040006DEC71E06115710509F447C0FB01449135
:1010500050E080E80E9400073CC0873009F43DC0A2
:10106000883021F481E08093F10033C0893089F524
:10107000937099F5E4E8F1E081E021E096E3809354
:10108000E9002093EB0034913093EC009093ED0055
:101090008F5F3196863099F78EE78093EA00109241
:1010A000EA008C858093B10114C0888999890E94D7
:1010B000F5068E85811105C0CE010A960E942F0487
:1010C00006C0833051F4CE010A960E942F0A88236D
:1010D00021F08EEF8093E80003C081E28093EB0063
:1010E00061960FB6F894DEBF0FBECDBFDF91CF91F2
:1010F000FF91EF91BF91AF919F918F917F916F91F0
:101100005F914F913F912F911F910F91FF90EF9021
:10111000DF900F900FBE0F901F9018958093E900FD
:101120008091F200882319F08AE38093E800089503
:101130001092B10181E08093D70080EA8093D800BB
:1011400082E189BD09B400FEFDCF61E070E080E07E
:1011500090E00E94690280E98093D8008CE080933F
:10116000E2001092E000559A209A08951F920F9283
:101170000FB60F9211242F933F934F935F936F936A
:101180007F938F939F93AF93BF93EF93FF93809140
:10119000E1001092E10083FF0FC01092E90091E09E
:1011A0009093EB001092EC0092E39093ED0010927C
:1011B000B10198E09093F00082FF32C083E00E947A
:1011C0008E0882E00E94C905882321F089E591E01C
:1011D0000E94D60385E00E948E0884E00E94C90523
:1011E000882321F084EB91E00E945B098091B30198
:1011F000882339F08091B30181508093B301882313
:1012000069F08091B201882359F08091B201815038
:101210008093B201811104C0289A02C05D9AF1CF77
:10122000FF91EF91BF91AF919F918F917F916F91BE
:101230005F914F913F912F910F900FBE0F901F9094
:1012400018950E9491028BEA91E00E9498080E94F2
:101250005F01C0E0D0E00E94F6012097E1F30E9418
:101260000000F9CF0895FC01EE5BFF4F2081318132
:10127000329680819181281B390B2F733327C90146
:1012800096958795969587950895CF93DF93EC0172
:10129000E881F9810480F581E02D0995CC5BDF4F71
:1012A000288139812C5F3F4F2F733327398328835F
:1012B000DF91CF910895CF92DF92EF92FF920F933B
:1012C0001F93CF93DF937C018C010E5B1F4FD801DE
:1012D000CD91DC912196CF73DD276C01B4E4CB0E68
:1012E000D11CF60180819181C817D907B9F084E03B
:1012F0000E9421068F3FEFEF9E0781F0D801ED910C
:10130000FC911197EE0DFF1D82831196DC93CE9315
:10131000CD91DC912196CF73DD27E3CFDF91CF9183
:101320001F910F91FF90EF90DF90CF90089585E08F
:101330000C948E08CF93DF9300D000D0CDB7DEB7EA
:1013400049835A836B837C8385E00E945206811116
:1013500003C080E090E00BC044E050E0BE016F5F4E
:101360007F4F85E00E9465061816190694F70F90C6
:101370000F900F900F90DF91CF91089587E797E737
:1013800090930108809300082BE088E190E00FB66D
:10139000F894A895809360000FBE20936000089594
:1013A000FF920F931F93CF93DF93EC01E881F981B4
:1013B0000190F081E02D0995181619062CF060E0D7
:1013C00070E080E090E03AC0FE01EC5BFF4FA0814E
:1013D000B181AC0FBD1F1296FC9080819181019666
:1013E00020E430E0B9010E94380A8C0F9D1FDC0117
:1013F00012960C91808191810296B9010E94380A5F
:101400008C0F9D1FDC0112961C91808191810396A7
:10141000B9010E94380A8C0F9D1FFC01C281F7E0C0
:10142000FF1208C0003F31F4C73F21F4113011F41E
:101430000E94BE096F2D702F812F9C2FDF91CF91BD
:101440001F910F91FF900895FC0120812F5F208351
:1014500046E450E063EF71E080E80C94000780E020
:10146000089581E491E09093B5018093B4010895CB
:1014700097FB072E16F4009407D077FD09D00E9441
:10148000740A07FC05D03EF4909581959F4F08950E
:10149000709561957F4F0895A1E21A2EAA1BBB1B80
:1014A000FD010DC0AA1FBB1FEE1FFF1FA217B30730
:1014B000E407F50720F0A21BB30BE40BF50B661F46
:1014C000771F881F991F1A9469F76095709580950A
:1014D00090959B01AC01BD01CF010895EE0FFF1F58
:1014E0000590F491E02D0994AA1BBB1B51E107C0A4
:1014F000AA1FBB1FA617B70710F0A61BB70B881FA4
:10150000991F5A95A9F780959095BC01CD01089532
:04151000F894FFCF7D
:10151400FFFFFFFFFFFF00E1000000000000696E15
:10152400427974653A2000020003000400050006B5
:10153400000700080009000A000B0000000000FF7B
:10154400039E048F03B3039C03FC03D60300000033
:0E1554000033095B09D009450997099A09007F
:00000001FF
